{
  "_format": "hh-sol-artifact-1",
  "contractName": "UserRegistry",
  "sourceName": "contracts/UserRegistry.sol",
  "abi": [
    {
      "anonymous": false,
      "inputs": [
        {
          "indexed": true,
          "internalType": "address",
          "name": "owner",
          "type": "address"
        },
        {
          "indexed": false,
          "internalType": "string",
          "name": "newBio",
          "type": "string"
        }
      ],
      "name": "BioUpdated",
      "type": "event"
    },
    {
      "anonymous": false,
      "inputs": [
        {
          "indexed": true,
          "internalType": "address",
          "name": "owner",
          "type": "address"
        },
        {
          "indexed": true,
          "internalType": "address",
          "name": "delegate",
          "type": "address"
        }
      ],
      "name": "DelegateAdded",
      "type": "event"
    },
    {
      "anonymous": false,
      "inputs": [
        {
          "indexed": true,
          "internalType": "address",
          "name": "owner",
          "type": "address"
        },
        {
          "indexed": true,
          "internalType": "address",
          "name": "delegate",
          "type": "address"
        }
      ],
      "name": "DelegateRemoved",
      "type": "event"
    },
    {
      "anonymous": false,
      "inputs": [
        {
          "indexed": true,
          "internalType": "address",
          "name": "owner",
          "type": "address"
        },
        {
          "indexed": false,
          "internalType": "string",
          "name": "newName",
          "type": "string"
        }
      ],
      "name": "DisplayNameUpdated",
      "type": "event"
    },
    {
      "anonymous": false,
      "inputs": [
        {
          "indexed": true,
          "internalType": "address",
          "name": "owner",
          "type": "address"
        },
        {
          "indexed": false,
          "internalType": "uint256",
          "name": "index",
          "type": "uint256"
        },
        {
          "indexed": false,
          "internalType": "string",
          "name": "name",
          "type": "string"
        },
        {
          "indexed": false,
          "internalType": "string",
          "name": "url",
          "type": "string"
        }
      ],
      "name": "LinkAdded",
      "type": "event"
    },
    {
      "anonymous": false,
      "inputs": [
        {
          "indexed": true,
          "internalType": "address",
          "name": "owner",
          "type": "address"
        },
        {
          "indexed": false,
          "internalType": "uint256",
          "name": "index",
          "type": "uint256"
        }
      ],
      "name": "LinkRemoved",
      "type": "event"
    },
    {
      "anonymous": false,
      "inputs": [
        {
          "indexed": true,
          "internalType": "address",
          "name": "owner",
          "type": "address"
        }
      ],
      "name": "LinksCleared",
      "type": "event"
    },
    {
      "anonymous": false,
      "inputs": [
        {
          "indexed": true,
          "internalType": "address",
          "name": "owner",
          "type": "address"
        }
      ],
      "name": "ProfileCreated",
      "type": "event"
    },
    {
      "anonymous": false,
      "inputs": [
        {
          "indexed": true,
          "internalType": "address",
          "name": "previousOwner",
          "type": "address"
        },
        {
          "indexed": true,
          "internalType": "address",
          "name": "newOwner",
          "type": "address"
        }
      ],
      "name": "ProfileOwnershipTransferred",
      "type": "event"
    },
    {
      "anonymous": false,
      "inputs": [
        {
          "indexed": true,
          "internalType": "address",
          "name": "owner",
          "type": "address"
        }
      ],
      "name": "ProfileUpdated",
      "type": "event"
    },
    {
      "anonymous": false,
      "inputs": [
        {
          "indexed": true,
          "internalType": "address",
          "name": "owner",
          "type": "address"
        }
      ],
      "name": "SessionPublicKeyCleared",
      "type": "event"
    },
    {
      "anonymous": false,
      "inputs": [
        {
          "indexed": true,
          "internalType": "address",
          "name": "owner",
          "type": "address"
        }
      ],
      "name": "SessionPublicKeyUpdated",
      "type": "event"
    },
    {
      "inputs": [
        {
          "internalType": "address",
          "name": "delegate",
          "type": "address"
        }
      ],
      "name": "addDelegate",
      "outputs": [],
      "stateMutability": "nonpayable",
      "type": "function"
    },
    {
      "inputs": [
        {
          "internalType": "string",
          "name": "name",
          "type": "string"
        },
        {
          "internalType": "string",
          "name": "url",
          "type": "string"
        }
      ],
      "name": "addLink",
      "outputs": [],
      "stateMutability": "nonpayable",
      "type": "function"
    },
    {
      "inputs": [
        {
          "internalType": "address",
          "name": "actor",
          "type": "address"
        },
        {
          "internalType": "address",
          "name": "profileOwner",
          "type": "address"
        }
      ],
      "name": "canActAs",
      "outputs": [
        {
          "internalType": "bool",
          "name": "",
          "type": "bool"
        }
      ],
      "stateMutability": "view",
      "type": "function"
    },
    {
      "inputs": [],
      "name": "clearLinks",
      "outputs": [],
      "stateMutability": "nonpayable",
      "type": "function"
    },
    {
      "inputs": [],
      "name": "clearSessionPublicKey",
      "outputs": [],
      "stateMutability": "nonpayable",
      "type": "function"
    },
    {
      "inputs": [],
      "name": "createDefaultProfile",
      "outputs": [],
      "stateMutability": "nonpayable",
      "type": "function"
    },
    {
      "inputs": [
        {
          "internalType": "string",
          "name": "displayName",
          "type": "string"
        },
        {
          "internalType": "string",
          "name": "bio",
          "type": "string"
        }
      ],
      "name": "createProfile",
      "outputs": [],
      "stateMutability": "nonpayable",
      "type": "function"
    },
    {
      "inputs": [
        {
          "internalType": "address",
          "name": "",
          "type": "address"
        }
      ],
      "name": "delegateToOwner",
      "outputs": [
        {
          "internalType": "address",
          "name": "",
          "type": "address"
        }
      ],
      "stateMutability": "view",
      "type": "function"
    },
    {
      "inputs": [
        {
          "internalType": "address",
          "name": "owner",
          "type": "address"
        }
      ],
      "name": "getLinkCount",
      "outputs": [
        {
          "internalType": "uint256",
          "name": "",
          "type": "uint256"
        }
      ],
      "stateMutability": "view",
      "type": "function"
    },
    {
      "inputs": [
        {
          "internalType": "address",
          "name": "owner",
          "type": "address"
        }
      ],
      "name": "getLinks",
      "outputs": [
        {
          "components": [
            {
              "internalType": "string",
              "name": "name",
              "type": "string"
            },
            {
              "internalType": "string",
              "name": "url",
              "type": "string"
            }
          ],
          "internalType": "struct UserRegistry.Link[]",
          "name": "",
          "type": "tuple[]"
        }
      ],
      "stateMutability": "view",
      "type": "function"
    },
    {
      "inputs": [
        {
          "internalType": "address",
          "name": "owner",
          "type": "address"
        }
      ],
      "name": "getProfile",
      "outputs": [
        {
          "components": [
            {
              "internalType": "address",
              "name": "owner",
              "type": "address"
            },
            {
              "internalType": "string",
              "name": "displayName",
              "type": "string"
            },
            {
              "internalType": "string",
              "name": "bio",
              "type": "string"
            },
            {
              "internalType": "bool",
              "name": "exists",
              "type": "bool"
            }
          ],
          "internalType": "struct UserRegistry.Profile",
          "name": "",
          "type": "tuple"
        }
      ],
      "stateMutability": "view",
      "type": "function"
    },
    {
      "inputs": [
        {
          "internalType": "address",
          "name": "owner",
          "type": "address"
        }
      ],
      "name": "getSessionPublicKey",
      "outputs": [
        {
          "internalType": "bytes",
          "name": "",
          "type": "bytes"
        }
      ],
      "stateMutability": "view",
      "type": "function"
    },
    {
      "inputs": [
        {
          "internalType": "address",
          "name": "addr",
          "type": "address"
        }
      ],
      "name": "hasProfile",
      "outputs": [
        {
          "internalType": "bool",
          "name": "",
          "type": "bool"
        }
      ],
      "stateMutability": "view",
      "type": "function"
    },
    {
      "inputs": [
        {
          "internalType": "address",
          "name": "owner",
          "type": "address"
        }
      ],
      "name": "hasSessionPublicKey",
      "outputs": [
        {
          "internalType": "bool",
          "name": "",
          "type": "bool"
        }
      ],
      "stateMutability": "view",
      "type": "function"
    },
    {
      "inputs": [
        {
          "internalType": "address",
          "name": "",
          "type": "address"
        },
        {
          "internalType": "address",
          "name": "",
          "type": "address"
        }
      ],
      "name": "isDelegate",
      "outputs": [
        {
          "internalType": "bool",
          "name": "",
          "type": "bool"
        }
      ],
      "stateMutability": "view",
      "type": "function"
    },
    {
      "inputs": [
        {
          "internalType": "address",
          "name": "",
          "type": "address"
        }
      ],
      "name": "profiles",
      "outputs": [
        {
          "internalType": "address",
          "name": "owner",
          "type": "address"
        },
        {
          "internalType": "string",
          "name": "displayName",
          "type": "string"
        },
        {
          "internalType": "string",
          "name": "bio",
          "type": "string"
        },
        {
          "internalType": "bool",
          "name": "exists",
          "type": "bool"
        }
      ],
      "stateMutability": "view",
      "type": "function"
    },
    {
      "inputs": [
        {
          "internalType": "address",
          "name": "delegate",
          "type": "address"
        }
      ],
      "name": "removeDelegate",
      "outputs": [],
      "stateMutability": "nonpayable",
      "type": "function"
    },
    {
      "inputs": [
        {
          "internalType": "uint256",
          "name": "index",
          "type": "uint256"
        }
      ],
      "name": "removeLink",
      "outputs": [],
      "stateMutability": "nonpayable",
      "type": "function"
    },
    {
      "inputs": [
        {
          "internalType": "address",
          "name": "addr",
          "type": "address"
        }
      ],
      "name": "resolveToOwner",
      "outputs": [
        {
          "internalType": "address",
          "name": "",
          "type": "address"
        }
      ],
      "stateMutability": "view",
      "type": "function"
    },
    {
      "inputs": [
        {
          "internalType": "address",
          "name": "",
          "type": "address"
        }
      ],
      "name": "sessionPublicKeys",
      "outputs": [
        {
          "internalType": "bytes",
          "name": "",
          "type": "bytes"
        }
      ],
      "stateMutability": "view",
      "type": "function"
    },
    {
      "inputs": [
        {
          "internalType": "string",
          "name": "bio",
          "type": "string"
        }
      ],
      "name": "setBio",
      "outputs": [],
      "stateMutability": "nonpayable",
      "type": "function"
    },
    {
      "inputs": [
        {
          "internalType": "string",
          "name": "displayName",
          "type": "string"
        }
      ],
      "name": "setDisplayName",
      "outputs": [],
      "stateMutability": "nonpayable",
      "type": "function"
    },
    {
      "inputs": [
        {
          "internalType": "bytes",
          "name": "sessionPubKey",
          "type": "bytes"
        }
      ],
      "name": "setSessionPublicKey",
      "outputs": [],
      "stateMutability": "nonpayable",
      "type": "function"
    },
    {
      "inputs": [
        {
          "internalType": "address",
          "name": "newOwner",
          "type": "address"
        }
      ],
      "name": "transferProfileOwnership",
      "outputs": [],
      "stateMutability": "nonpayable",
      "type": "function"
    }
  ],
  "bytecode": "0x608060405234801561001057600080fd5b50612960806100206000396000f3fe608060405234801561001057600080fd5b50600436106101585760003560e01c806391e33085116100c3578063b744177f1161007c578063b744177f1461036f578063ba1feb8a14610377578063bbe156271461038a578063bddd12b4146103ad578063e71bdf41146103b5578063fb7e06d8146103c857600080fd5b806391e33085146102bd57806398be0dd4146102d05780639b25b232146102e35780639c4882b31461031a578063a787c80b1461032d578063b080ae4f1461035c57600080fd5b8063603f7b5911610115578063603f7b591461025657806360e7be1a1461026957806367e7646f1461027c57806375ca64fe1461028f578063781debd0146102975780637de918ef146102aa57600080fd5b80630c5856d41461015d5780630f53a470146101a35780630fec9efa146101c35780634b9d8624146101d857806355a5cd9f146101f85780635fec5d0b14610218575b600080fd5b61018661016b3660046121de565b6002602052600090815260409020546001600160a01b031681565b6040516001600160a01b0390911681526020015b60405180910390f35b6101b66101b13660046121de565b6103db565b60405161019a9190612246565b6101d66101d13660046122f3565b61057d565b005b6101eb6101e63660046121de565b610864565b60405161019a919061235f565b61020b6102063660046121de565b6109fd565b60405161019a91906123e4565b6102466102263660046123f7565b600360209081526000928352604080842090915290825290205460ff1681565b604051901515815260200161019a565b6101d66102643660046121de565b610a97565b6102466102773660046123f7565b610f8d565b6101d661028a3660046121de565b610fe1565b6101d661111a565b61020b6102a53660046121de565b6111c7565b6101d66102b836600461242a565b611273565b6101d66102cb36600461242a565b611375565b6101866102de3660046121de565b6114d0565b61030c6102f13660046121de565b6001600160a01b031660009081526001602052604090205490565b60405190815260200161019a565b6102466103283660046121de565b61152d565b61024661033b3660046121de565b6001600160a01b031660009081526020819052604090206003015460ff1690565b6101d661036a36600461246c565b61155d565b6101d6611700565b6101d66103853660046122f3565b6117ad565b61039d6103983660046121de565b611a0a565b60405161019a9493929190612485565b6101d6611b50565b6101d66103c33660046121de565b611c83565b6101d66103d636600461242a565b611eec565b610411604051806080016040528060006001600160a01b0316815260200160608152602001606081526020016000151581525090565b6001600160a01b03808316600090815260208181526040918290208251608081019093528054909316825260018301805492939291840191610452906124cf565b80601f016020809104026020016040519081016040528092919081815260200182805461047e906124cf565b80156104cb5780601f106104a0576101008083540402835291602001916104cb565b820191906000526020600020905b8154815290600101906020018083116104ae57829003601f168201915b505050505081526020016002820180546104e4906124cf565b80601f0160208091040260200160405190810160405280929190818152602001828054610510906124cf565b801561055d5780601f106105325761010080835404028352916020019161055d565b820191906000526020600020905b81548152906001019060200180831161054057829003601f168201915b50505091835250506003919091015460ff16151560209091015292915050565b3360009081526020819052604090206003015460ff166105b85760405162461bcd60e51b81526004016105af90612509565b60405180910390fd5b336000818152602081905260409020546001600160a01b0316146105ee5760405162461bcd60e51b81526004016105af90612539565b826106305760405162461bcd60e51b8152602060048201526012602482015271131a5b9ac81b985b59481c995c5d5a5c995960721b60448201526064016105af565b60328311156106765760405162461bcd60e51b81526020600482015260126024820152714c696e6b206e616d6520746f6f206c6f6e6760701b60448201526064016105af565b806106b75760405162461bcd60e51b8152602060048201526011602482015270131a5b9ac8155493081c995c5d5a5c9959607a1b60448201526064016105af565b60c88111156106fc5760405162461bcd60e51b81526020600482015260116024820152704c696e6b2055524c20746f6f206c6f6e6760781b60448201526064016105af565b33600090815260016020526040902054600a1161074a5760405162461bcd60e51b815260206004820152600c60248201526b4d6178203130206c696e6b7360a01b60448201526064016105af565b33600090815260016020908152604091829020805483516060601f8901859004909402810184018552938401878152909391928291908990899081908501838280828437600092019190915250505090825250604080516020601f88018190048102820181019092528681529181019190879087908190840183828082843760009201829052509390945250508354600181018555938152602090208251929360020201918291506107fc90826125de565b506020820151600182019061081190826125de565b505050336001600160a01b03167fca6ab2d9b68c3ecb4269af6f144b31f2ffe6e2dedd099f53333e4c457986a25082878787876040516108559594939291906126c1565b60405180910390a25050505050565b6001600160a01b0381166000908152600160209081526040808320805482518185028101850190935280835260609492939192909184015b828210156109f257838290600052602060002090600202016040518060400160405290816000820180546108cf906124cf565b80601f01602080910402602001604051908101604052809291908181526020018280546108fb906124cf565b80156109485780601f1061091d57610100808354040283529160200191610948565b820191906000526020600020905b81548152906001019060200180831161092b57829003601f168201915b50505050508152602001600182018054610961906124cf565b80601f016020809104026020016040519081016040528092919081815260200182805461098d906124cf565b80156109da5780601f106109af576101008083540402835291602001916109da565b820191906000526020600020905b8154815290600101906020018083116109bd57829003601f168201915b5050505050815250508152602001906001019061089c565b505050509050919050565b60046020526000908152604090208054610a16906124cf565b80601f0160208091040260200160405190810160405280929190818152602001828054610a42906124cf565b8015610a8f5780601f10610a6457610100808354040283529160200191610a8f565b820191906000526020600020905b815481529060010190602001808311610a7257829003601f168201915b505050505081565b3360009081526020819052604090206003015460ff16610ac95760405162461bcd60e51b81526004016105af90612509565b336000818152602081905260409020546001600160a01b031614610aff5760405162461bcd60e51b81526004016105af90612539565b6001600160a01b038116610b495760405162461bcd60e51b815260206004820152601160248201527024b73b30b634b2103732bb9037bbb732b960791b60448201526064016105af565b6001600160a01b03811660009081526020819052604090206003015460ff1615610bad5760405162461bcd60e51b81526020600482015260156024820152744e6577206f776e6572206861732070726f66696c6560581b60448201526064016105af565b6001600160a01b038181166000908152600260205260409020541615610c0d5760405162461bcd60e51b81526020600482015260156024820152744e6577206f776e65722069732064656c656761746560581b60448201526064016105af565b604080516080810182526001600160a01b0383168152336000908152602081815292902060010180549192830191610c44906124cf565b80601f0160208091040260200160405190810160405280929190818152602001828054610c70906124cf565b8015610cbd5780601f10610c9257610100808354040283529160200191610cbd565b820191906000526020600020905b815481529060010190602001808311610ca057829003601f168201915b50505050508152602001600080336001600160a01b03166001600160a01b031681526020019081526020016000206002018054610cf9906124cf565b80601f0160208091040260200160405190810160405280929190818152602001828054610d25906124cf565b8015610d725780601f10610d4757610100808354040283529160200191610d72565b820191906000526020600020905b815481529060010190602001808311610d5557829003601f168201915b5050509183525050600160209182018190526001600160a01b03848116600090815280845260409020845181546001600160a01b03191692169190911781559183015190820190610dc390826125de565b5060408201516002820190610dd890826125de565b50606091909101516003909101805460ff1916911515919091179055336000908152600160205260408120905b8154811015610e90576001600160a01b03831660009081526001602052604090208254839083908110610e3a57610e3a6126fa565b6000918252602080832084546001810186559484529220600291820290920192020180610e678382612710565b50600181810190610e7a90840182612710565b5050508080610e88906127fb565b915050610e05565b503360009081526004602052604081208054610eab906124cf565b90501115610ede57336000908152600460205260408082206001600160a01b0385168352912090610edc9082612710565b505b33600090815260208190526040812080546001600160a01b031916815590610f096001830182612120565b610f17600283016000612120565b50600301805460ff19169055336000908152600160205260408120610f3b9161215d565b336000908152600460205260408120610f5391612120565b6040516001600160a01b0383169033907f0ccb252632c8127b8affc3a2f8d4e4944d12b250cb0824306d6aedb97eb6081e90600090a35050565b6000816001600160a01b0316836001600160a01b031603610fb057506001610fdb565b506001600160a01b0380821660009081526003602090815260408083209386168352929052205460ff165b92915050565b3360009081526020819052604090206003015460ff166110135760405162461bcd60e51b81526004016105af90612509565b336000818152602081905260409020546001600160a01b0316146110495760405162461bcd60e51b81526004016105af90612539565b3360009081526003602090815260408083206001600160a01b038516845290915290205460ff166110ad5760405162461bcd60e51b815260206004820152600e60248201526d4e6f7420612064656c656761746560901b60448201526064016105af565b3360008181526003602090815260408083206001600160a01b038616808552908352818420805460ff19169055600290925280832080546001600160a01b0319169055519092917fe8514dd4be968431135580c26314ec35afafc8178268603f99625584960d9c1691a350565b3360009081526020819052604090206003015460ff1661114c5760405162461bcd60e51b81526004016105af90612509565b336000818152602081905260409020546001600160a01b0316146111825760405162461bcd60e51b81526004016105af90612539565b33600090815260016020526040812061119a9161215d565b60405133907f4ebd2ae967d6ecec2b1279d60129082874a637b7e0ef3331d5e51c65df36172c90600090a2565b6001600160a01b03811660009081526004602052604090208054606091906111ee906124cf565b80601f016020809104026020016040519081016040528092919081815260200182805461121a906124cf565b80156112675780601f1061123c57610100808354040283529160200191611267565b820191906000526020600020905b81548152906001019060200180831161124a57829003601f168201915b50505050509050919050565b3360009081526020819052604090206003015460ff166112a55760405162461bcd60e51b81526004016105af90612509565b336000818152602081905260409020546001600160a01b0316146112db5760405162461bcd60e51b81526004016105af90612539565b6040811461132b5760405162461bcd60e51b815260206004820152601960248201527f496e76616c6964207075626c6963206b6579206c656e6774680000000000000060448201526064016105af565b336000908152600460205260409020611345828483612814565b5060405133907f5ff7c0bad00be12d55cdccd56110e5cc3274c51f092fb3926fd621d2209a615890600090a25050565b3360009081526020819052604090206003015460ff166113a75760405162461bcd60e51b81526004016105af90612509565b336000818152602081905260409020546001600160a01b0316146113dd5760405162461bcd60e51b81526004016105af90612539565b806114225760405162461bcd60e51b8152602060048201526015602482015274111a5cdc1b185e481b985b59481c995c5d5a5c9959605a1b60448201526064016105af565b603281111561146b5760405162461bcd60e51b8152602060048201526015602482015274446973706c6179206e616d6520746f6f206c6f6e6760581b60448201526064016105af565b336000908152602081905260409020600101611488828483612814565b50336001600160a01b03167f1e9bee8140e85de651adf10e9e40c4a2b2b5c1004c1c855aa7f29391a899c5a683836040516114c49291906128ce565b60405180910390a25050565b6001600160a01b0380821660009081526002602052604081205490911680156114f95792915050565b6001600160a01b03831660009081526020819052604090206003015460ff1615611524575090919050565b50600092915050565b6001600160a01b03811660009081526004602052604081208054829190611553906124cf565b9050119050919050565b3360009081526020819052604090206003015460ff1661158f5760405162461bcd60e51b81526004016105af90612509565b336000818152602081905260409020546001600160a01b0316146115c55760405162461bcd60e51b81526004016105af90612539565b3360009081526001602052604090208054821061161a5760405162461bcd60e51b8152602060048201526013602482015272496e646578206f7574206f6620626f756e647360681b60448201526064016105af565b8054819061162a906001906128ea565b8154811061163a5761163a6126fa565b906000526020600020906002020181838154811061165a5761165a6126fa565b60009182526020909120600290910201806116758382612710565b5060018181019061168890840182612710565b509050508080548061169c5761169c6128fd565b600082815260208120600019909201916002830201906116bc8282612120565b6116ca600183016000612120565b5050905560405182815233907f7797729365faace2de241145f732a8f81af7571d5a3c7deac73664d67478447f906020016114c4565b3360009081526020819052604090206003015460ff166117325760405162461bcd60e51b81526004016105af90612509565b336000818152602081905260409020546001600160a01b0316146117685760405162461bcd60e51b81526004016105af90612539565b33600090815260046020526040812061178091612120565b60405133907fa14514763a5ad5dc633ae300a26a8e103e086922a337846df3756270a360257990600090a2565b3360009081526020819052604090206003015460ff16156118095760405162461bcd60e51b815260206004820152601660248201527550726f66696c6520616c72656164792065786973747360501b60448201526064016105af565b8261184e5760405162461bcd60e51b8152602060048201526015602482015274111a5cdc1b185e481b985b59481c995c5d5a5c9959605a1b60448201526064016105af565b60328311156118975760405162461bcd60e51b8152602060048201526015602482015274446973706c6179206e616d6520746f6f206c6f6e6760581b60448201526064016105af565b6101f48111156118d85760405162461bcd60e51b815260206004820152600c60248201526b42696f20746f6f206c6f6e6760a01b60448201526064016105af565b6040518060800160405280336001600160a01b0316815260200185858080601f016020809104026020016040519081016040528093929190818152602001838380828437600092019190915250505090825250604080516020601f86018190048102820181019092528481529181019190859085908190840183828082843760009201829052509385525050600160209384018190523383528284526040909220845181546001600160a01b0319166001600160a01b0390911617815592840151918301916119a89150826125de565b50604082015160028201906119bd90826125de565b50606091909101516003909101805460ff191691151591909117905560405133907ff10ec97e920cde75887622583772c637595a40b1f7777c18e51ea36cd127475c90600090a250505050565b600060208190529081526040902080546001820180546001600160a01b039092169291611a36906124cf565b80601f0160208091040260200160405190810160405280929190818152602001828054611a62906124cf565b8015611aaf5780601f10611a8457610100808354040283529160200191611aaf565b820191906000526020600020905b815481529060010190602001808311611a9257829003601f168201915b505050505090806002018054611ac4906124cf565b80601f0160208091040260200160405190810160405280929190818152602001828054611af0906124cf565b8015611b3d5780601f10611b1257610100808354040283529160200191611b3d565b820191906000526020600020905b815481529060010190602001808311611b2057829003601f168201915b5050506003909301549192505060ff1684565b3360009081526020819052604090206003015460ff1615611bac5760405162461bcd60e51b815260206004820152601660248201527550726f66696c6520616c72656164792065786973747360501b60448201526064016105af565b6000611bb733611fee565b604080516080810182523380825260208083018581528451808301865260008082528587019190915260016060860181905293815291829052939020825181546001600160a01b0319166001600160a01b039091161781559251939450909290820190611c2490826125de565b5060408201516002820190611c3990826125de565b50606091909101516003909101805460ff191691151591909117905560405133907ff10ec97e920cde75887622583772c637595a40b1f7777c18e51ea36cd127475c90600090a250565b3360009081526020819052604090206003015460ff16611cb55760405162461bcd60e51b81526004016105af90612509565b336000818152602081905260409020546001600160a01b031614611ceb5760405162461bcd60e51b81526004016105af90612539565b6001600160a01b038116611d415760405162461bcd60e51b815260206004820152601860248201527f496e76616c69642064656c65676174652061646472657373000000000000000060448201526064016105af565b336001600160a01b03821603611d995760405162461bcd60e51b815260206004820152601760248201527f43616e6e6f742064656c656761746520746f2073656c6600000000000000000060448201526064016105af565b3360009081526003602090815260408083206001600160a01b038516845290915290205460ff1615611e025760405162461bcd60e51b8152602060048201526012602482015271416c726561647920612064656c656761746560701b60448201526064016105af565b6001600160a01b038181166000908152600260205260409020541615611e7a5760405162461bcd60e51b815260206004820152602760248201527f416464726573732069732064656c656761746520666f7220616e6f746865722060448201526670726f66696c6560c81b60648201526084016105af565b3360008181526003602090815260408083206001600160a01b038616808552908352818420805460ff19166001179055600290925280832080546001600160a01b03191685179055519092917f12dade473695d73bd34e031c850d5e815fa17a42b1b5ba13ff72de2497c5e30991a350565b3360009081526020819052604090206003015460ff16611f1e5760405162461bcd60e51b81526004016105af90612509565b336000818152602081905260409020546001600160a01b031614611f545760405162461bcd60e51b81526004016105af90612539565b6101f4811115611f955760405162461bcd60e51b815260206004820152600c60248201526b42696f20746f6f206c6f6e6760a01b60448201526064016105af565b336000908152602081905260409020600201611fb2828483612814565b50336001600160a01b03167f3f838a7d0889a59b2445af5389196b3948170278848eb90d8d256ab14aaf4cf083836040516114c49291906128ce565b604080518082018252601081526f181899199a1a9b1b9c1cb0b131b232b360811b60208201528151600a80825281840190935260609260009190602082018180368337019050509050600360fc1b8160008151811061204f5761204f6126fa565b60200101906001600160f81b031916908160001a905350600f60fb1b8160018151811061207e5761207e6126fa565b60200101906001600160f81b031916908160001a9053508360095b60028110612116578382600f166001600160a01b0316815181106120bf576120bf6126fa565b602001015160f81c60f81b8382815181106120dc576120dc6126fa565b60200101906001600160f81b031916908160001a9053506004826001600160a01b0316901c9150808061210e90612913565b915050612099565b5090949350505050565b50805461212c906124cf565b6000825580601f1061213c575050565b601f01602090049060005260206000209081019061215a919061217e565b50565b508054600082556002029060005260206000209081019061215a9190612197565b5b80821115612193576000815560010161217f565b5090565b808211156121935760006121ab8282612120565b6121b9600183016000612120565b50600201612197565b80356001600160a01b03811681146121d957600080fd5b919050565b6000602082840312156121f057600080fd5b6121f9826121c2565b9392505050565b6000815180845260005b818110156122265760208185018101518683018201520161220a565b506000602082860101526020601f19601f83011685010191505092915050565b602080825282516001600160a01b0316828201528201516080604083015260009061227460a0840182612200565b90506040840151601f198483030160608501526122918282612200565b9150506060840151151560808401528091505092915050565b60008083601f8401126122bc57600080fd5b50813567ffffffffffffffff8111156122d457600080fd5b6020830191508360208285010111156122ec57600080fd5b9250929050565b6000806000806040858703121561230957600080fd5b843567ffffffffffffffff8082111561232157600080fd5b61232d888389016122aa565b9096509450602087013591508082111561234657600080fd5b50612353878288016122aa565b95989497509550505050565b60006020808301818452808551808352604092508286019150828160051b87010184880160005b838110156123d657888303603f19018552815180518785526123aa88860182612200565b91890151858303868b01529190506123c28183612200565b968901969450505090860190600101612386565b509098975050505050505050565b6020815260006121f96020830184612200565b6000806040838503121561240a57600080fd5b612413836121c2565b9150612421602084016121c2565b90509250929050565b6000806020838503121561243d57600080fd5b823567ffffffffffffffff81111561245457600080fd5b612460858286016122aa565b90969095509350505050565b60006020828403121561247e57600080fd5b5035919050565b6001600160a01b03851681526080602082018190526000906124a990830186612200565b82810360408401526124bb8186612200565b915050821515606083015295945050505050565b600181811c908216806124e357607f821691505b60208210810361250357634e487b7160e01b600052602260045260246000fd5b50919050565b602080825260169082015275141c9bd99a5b1948191bd95cc81b9bdd08195e1a5cdd60521b604082015260600190565b6020808252601190820152702737ba10383937b334b6329037bbb732b960791b604082015260600190565b634e487b7160e01b600052604160045260246000fd5b601f8211156125c457600081815260208120601f850160051c810160208610156125a15750805b601f850160051c820191505b818110156125c0578281556001016125ad565b5050505b505050565b600019600383901b1c191660019190911b1790565b815167ffffffffffffffff8111156125f8576125f8612564565b61260c8161260684546124cf565b8461257a565b602080601f83116001811461263b57600084156126295750858301515b61263385826125c9565b8655506125c0565b600085815260208120601f198616915b8281101561266a5788860151825594840194600190910190840161264b565b50858210156126885787850151600019600388901b60f8161c191681555b5050505050600190811b01905550565b81835281816020850137506000828201602090810191909152601f909101601f19169091010190565b8581526060602082015260006126db606083018688612698565b82810360408401526126ee818587612698565b98975050505050505050565b634e487b7160e01b600052603260045260246000fd5b81810361271b575050565b61272582546124cf565b67ffffffffffffffff81111561273d5761273d612564565b61274b8161260684546124cf565b6000601f82116001811461277957600083156127675750848201545b61277184826125c9565b8555506127de565b600085815260209020601f19841690600086815260209020845b838110156127b35782860154825560019586019590910190602001612793565b50858310156127d15781850154600019600388901b60f8161c191681555b50505060018360011b0184555b5050505050565b634e487b7160e01b600052601160045260246000fd5b60006001820161280d5761280d6127e5565b5060010190565b67ffffffffffffffff83111561282c5761282c612564565b6128408361283a83546124cf565b8361257a565b6000601f84116001811461286e576000851561285c5750838201355b61286686826125c9565b8455506127de565b600083815260209020601f19861690835b8281101561289f578685013582556020948501946001909201910161287f565b50868210156128bc5760001960f88860031b161c19848701351681555b505060018560011b0183555050505050565b6020815260006128e2602083018486612698565b949350505050565b81810381811115610fdb57610fdb6127e5565b634e487b7160e01b600052603160045260246000fd5b600081612922576129226127e5565b50600019019056fea26469706673582212206c9d466e5ab31b55d1f8ff5db91e026782fcaa8d2a466bce8d6d3f349252ec8d64736f6c63430008140033",
  "linkReferences": {},
  "deployedLinkReferences": {}
}